:020000040800F2
:1000000048080020290200084518000803180008C5
:1000100041180008CD1600082F2400080000000039
:10002000000000000000000000000000151F000894
:10003000D1160008000000004D1C0008292000080F
:10004000430200084302000843020008430200087C
:10005000430200084302000843020008430200086C
:10006000430200084302000843020008430200085C
:10007000430200084302000843020008430200084C
:10008000430200084302000843020008430200083C
:10009000430200084302000843020008430200082C
:1000A000430200084302000843020008430200081C
:1000B000430200088D2000084302000843020008A4
:1000C00043020008430200084302000843020008FC
:1000D000430200080D220008430200084302000802
:1000E00043020008430200084302000843020008DC
:1000F00043020008430200084302000843020008CC
:1001000043020008430200084302000843020008BB
:1001100043020008430200084302000843020008AB
:10012000430200084302000843020008430200089B
:1001300000F002F800F04FF80AA090E8000C8244AA
:100140008344AAF10107DA4501D100F044F8AFF287
:10015000090EBAE80F0013F0010F18BFFB1A43F0A5
:1001600001031847B42D0000D42D0000103A24BF1D
:1001700078C878C1FAD8520724BF30C830C144BF0C
:1001800004680C607047000000230024002500264E
:10019000103A28BF78C1FBD8520728BF30C148BFEA
:1001A0000B607047662902F03886642900F092805F
:1001B000782900F0CB80002070471FB500F0A3F92C
:1001C00000F080FC04000020002102F0DFFBE06072
:1001D0001FBD10B510BD00F08DFD1146FFF7EDFFFE
:1001E00002F0C2F900F0ABFD03B4FFF7F2FF03BC6D
:1001F00002F03AF90B49D1F800C04A685CF8043BB8
:100200001068184442F8040B8C4528BFA1F1DC0C9F
:100210008A4228BFA1F1DC02C1F800C04A6020F088
:1002200000407047DC01002009488047094800472A
:10023000FEE7FEE7FEE7FEE7FEE7FEE7FEE7FEE796
:10024000FEE7FEE704480549054A064B70470000F3
:100250002D20000831010008480200204808002035
:100260004804002048040020704700000FB40449EF
:1002700010B503AA029800F013FC10BC5DF814FB43
:100280001C00002070B5044685690068C10601D5D0
:10029000302600E02026C00707D070BDD4E9012138
:1002A00030469047206A401C20626D1EF6D570BD16
:1002B00070B5044685690078C00707D170BDD4E9E0
:1002C000012120209047206A401C20626D1EF6D537
:1002D00070BD00002DE9F041064600241068752924
:1002E000314616A510D0AFF30080002802DA404254
:1002F00013A507E031688A0701D512A502E0490776
:1003000004D511A5012401E0AFF3008000210A22E9
:1003100006F1240709E0B0FBF2FCB0FBF2F302FBAC
:100320001C00303078541846491C0028F3D123466D
:100330002A463046BDE8F04100F04BB9000000000D
:100340002D0000002B0000002000000070B50446C6
:100350000D4621461068AFF300802188090502D5BB
:100360000F4A7A4402E00E4A7A440E32002104F128
:10037000240305E000F00F060009965D5E54491C59
:100380000028F7D120780023000704D5702D02D073
:1003900009B1022311322046BDE8704000F019B9BE
:1003A000E42A00002DE9F05F894604464FF0000A78
:1003B000DFF824B1FB44C0F820A02046E16888475C
:1003C00000287DD0252806D0D4E901219047206A55
:1003D000401C2062F1E700255F462046E16888471F
:1003E0002028064607DB312E05D2B81910F8200C5C
:1003F00008B10543F1E7A80701D525F00405C4F8C5
:100400001CA00027C4F818A02A2E09D0304602F0FC
:1004100024F838B304EB8708303EC8F8186019E0B8
:1004200059F8041B204604EB87029161E168884774
:10043000012F064618D1E069002820DA25F02005B2
:100440001DE0D8F8180000EB800006EB40003038C3
:10045000C8F818002046E1688847064601F0FDFF0D
:100460000028EED1012F0AD02E2E08D12046E168B7
:1004700088477F1C0646022F45F02005C4DBA06993
:10048000002803DA404245F00105A061E80701D0E9
:1004900025F01005A6B1A6F14100192802D8203692
:1004A00045F400654A463146204625604D46FFF733
:1004B00079FE60B1012807D0ED1D25F0070000E0AE
:1004C00007E000F1080978E705F1040975E730460F
:1004D0007AE7206ABDE8F09FBA2A00000B4910B500
:1004E000A1F17C020A4CC2E93712372106E000EB89
:1004F000104342F82130074B00FB03400B1EA1F1D3
:100500000101F4DC10BD0120E8E700007C010020BF
:10051000E119D666CD0D010010B5203AC0F00B8070
:10052000B1E81850203AA0E81850B1E81850A0E8F7
:100530001850BFF4F5AF5FEA027C24BFB1E8185051
:10054000A0E8185044BF18C918C0BDE810405FEAC1
:10055000827C24BF51F8043B40F8043B08BF70473D
:10056000D20728BF31F8023B48BF11F8012B28BF42
:1005700020F8023B48BF00F8012B70474FF0000203
:1005800000B5134694469646203922BFA0E80C5089
:10059000A0E80C50B1F12001BFF4F7AF090728BF64
:1005A000A0E80C5048BF0CC05DF804EB890028BFE0
:1005B00040F8042B08BF704748BF20F8022B11F009
:1005C000804F18BF00F8012B704770477047704785
:1005D00070472DE9F0470D4699469246044600F1D2
:1005E00024080168880604D5E06921F01001216023
:1005F00000E00120A84201DD471B00E00027A169BF
:100600007A1902EB0900081AA0612078C00602D40A
:100610002046FFF737FE002608E0D4E901211AF84A
:1006200006009047206A401C761C20624E45F4DB91
:100630002078C0060AD52046FFF724FE06E0D4E95C
:10064000012130209047206A401C2062381EA7F10B
:100650000107F4DC07E0D4E9012118F80500904710
:10066000206A401C2062281EA5F10105F3DC20460B
:10067000FFF71EFE2078000602D50220BDE8F087B5
:100680000120FBE770472DE9FF4F0C461E464FF057
:10069000FF378BB0D2E90001DDF860800A908A460E
:1006A000C1F30A5505B93D46002108464FF0000048
:1006B000BAF1000F00F4400005DA00EB80004FF4BF
:1006C000400101EA50004FEA9059B9F1010F00DDF5
:1006D000B9460A9850EA4A000ED044F61050A5F2E6
:1006E000FF3545432F14B8F1000F1ED07542291E67
:1006F0001EDDC9F100021CE0B8F1010F4FF000004F
:1007000001D0302103E0F24305E02154401CB04207
:10071000FBDB30460022002121540B99C1F80880F0
:10072000C1E900200FB0BDE8F08FBD1B6D1CDEE7F6
:100730004A4600DA694206A800F066FA06AB93E87A
:10074000070003AB83E8070050460A9900F03EFB20
:100750008DE80700A0F500501F3800900398002D89
:1007600009DD42F21F014A46084403A90390684686
:1007700000F09DFD08E0A0F500504A461F3803A98F
:100780000390684600F0A7FD8DE807000004000C08
:1007900003D04FF0FF30410800E01046B8F1000FE1
:1007A00003D00022009215461EE0751E05D400F00D
:1007B0008DF9303262556D1EF9D5B34601220843DA
:1007C00002D000227F1C04E02078302801D10022D2
:1007D0007F1E002A099786D01DE0112D07DA00F050
:1007E00075F9303262556D1C50EA0102F5D10843AB
:1007F00002D00098C8B10EE00021681E05E0235C1D
:10080000625C63542254401E491C8142F7DBAB46B4
:10081000A81B401E0990002004F80B000B98099AB1
:10082000C0F80880C0E9002B7CE711264FF00008D3
:1008300059E72DE9F04F88460446D21D22F0070102
:1008400091B0D1E90001CDE90A0101F0F2FD0246C3
:100850000B98C00F01D02D2007E02068810701D53B
:100860002B2002E0202101EAC000032A099001D0D8
:10087000072A05DB03464146204600F085F90BE1D7
:100880002078800601D5E06900E00620B8F1650F08
:10089000814606D0B8F1660F18D0B8F1670F70D155
:1008A00031E00020B9F1110F009001DB112301E0CC
:1008B00009F101030AAA01A90CA8FFF7E4FEDDE98A
:1008C0000C70002609F10105834647E001204B46E4
:1008D00000904FF000470AAA01A90CA8FFF7D3FE29
:1008E000DDE90DB00C995D46002610B909F1010053
:1008F0000D18B9EB050003D4C0F1FF3609F101056D
:10090000A5EB09002BE0B9F1010F01DA4FF0010965
:100910000020B9F1110F0090484601DD112300E0DD
:1009200003460AAA01A90CA8FFF7ADFEDDE90C7089
:100930004D4600268346207800070AD4AB4500DAEE
:100940005D4601A8012D04DD411911F8011C302973
:1009500007D04F4502DA17F1040F04DA012082466E
:100960000FE06D1EEEE7002F02DCED1B3E4403E0BE
:10097000781CA84200DD7D1CB81B00F1010A4FF075
:1009800000472078000703D4AA4501DB4FF0FF3A67
:100990000021B7F1004F0DF143088DF8431024D02A
:1009A00002202B23002F01DA7F422D230A21021E71
:1009B000A0F1010000DC5FB197FBF1FC97FBF1F2C5
:1009C00001FB1C7C17460CF1300C08F801CDEEE75A
:1009D000A8F1010003702188090501D5452100E037
:1009E0006521A0F1010800F8011C09980FA9A1EBED
:1009F0000807FF1D00B10120411901EBEA70A16950
:100A00003844081A401EA0612078C00602D420464F
:100A1000FFF738FC099828B1D4E901219047206AF2
:100A2000401C20622078C00622D52046FFF72AFC11
:100A30001EE0002E04DBB34502DD01A8805D00E06E
:100A40003020D4E901219047206A401C2062761CA6
:100A5000AAF101005FEA000A0AD100F033F8C06889
:100A60000168405CD4E901219047206A401C206263
:100A7000281EA5F10105DCDC07E0D4E9012118F806
:100A8000010B9047206A401C2062381EA7F1010725
:100A9000F3DC2046FFF70CFC032011B043E6000016
:100AA000074B70B50D467B4400F05BF804462846C2
:100AB00000F018F910B14FF0FF3070BD204670BD46
:100AC000A31A0000004870470402002030B5B0F1BE
:100AD0000A024FEA900E71F100034EEA817EB0EBFC
:100AE0000E0061EB91014FEA101E4EEA017E10EB01
:100AF0000E0041EB11114FEA102E4EEA016E10EB81
:100B00000E0041EB11214FEA104E4EEA014E10EB60
:100B10000E0041EB1141401841F100014FEAD000B5
:100B200040EA41704FEAD10110EB80054FEA8104A1
:100B300044EA907444EB01046D1944EB0404521B25
:100B4000A3414FF0000348BF0A3200D530BD401C1E
:100B500041F1000130BD000001694A1C02610878C2
:100B6000704700B58FB0CDE90131002105910549ED
:100B70007944CDE9031011466846FFF713FC0FB026
:100B800000BD0000E5FFFFFF2DE9F0411F460446D0
:100B900003260168072A01F4006004DB08B116A5EA
:100BA00005E016A503E008B115A500E015A521F0A4
:100BB00010002060A069C01EA0610FB1401EA0619E
:100BC0002046FFF75FFB4FB1D4E90121384690473B
:100BD000206A401C2062C01C206206E0206AFAE7FE
:100BE000D4E9012115F8010B9047761EF8D2204672
:100BF000FFF75EFBBDE8F0814E414E006E616E0076
:100C0000494E4600696E66002DE9F047814616465A
:100C10008AB0334878440DC88DE80D0030487844D8
:100C2000801C03AC0DC884E80D0041F69B300844DD
:100C3000372190FBF1F290FBF1F5A5F1800501FB66
:100C400012041B3C02D56442012000E00020DFF8C2
:100C500090A080460027FA44AAF1BE0A0DE0E00702
:100C600009D03246684607EB47010AEB810100F0E4
:100C700032FB8DE8070064107F1C002CEFD1184F69
:100C80007F44AC3F18E0E80714D007EB04100DF1E7
:100C9000180A90E80E008AE80E00C068F04201D100
:100CA00098190890324606A903A800F014FB03AB7C
:100CB00083E807006D10641C002DE4D132466946BC
:100CC000B8F1000F03A802D000F0F1FA01E000F043
:100CD00002FBC9E90001C9F808200AB0BDE8F087A5
:100CE000E8220000007B00F0800070470048704759
:100CF000E40100207546FFF7F9FFAE46050069469E
:100D0000534620F00700854618B020B5FFF79AFA41
:100D1000BDE820404FF000064FF000074FF00008FC
:100D20004FF0000B21F00701AC46ACE8C009ACE87D
:100D3000C009ACE8C009ACE8C0098D46704704465C
:100D4000AFF300802046FFF74FFA00004FF0013C60
:100D500050F8042B51F8043B9A4221D1A2EB0C032A
:100D6000934313EACC1317D150F8042B51F8043BEA
:100D70009A4215D1A2EB0C03934313EACC130BD187
:100D800050F8042B51F8043B9A4209D1A2EB0C0312
:100D9000934313EACC13DBD04FF00000704700BF41
:100DA000D01A01BAB1FA81F101F0180122FA01F06A
:100DB000CB40C1F12001DBB2C0B2C01A2CFA01F362
:100DC000D11A914311EAC311E6D170475FEA400C92
:100DD00008BF91F0000F4FEA8C234FEAC12243EA8B
:100DE00051514FEA1C5018BF00F5F0404FEA300057
:100DF00018BF41F000415FEA6C5C00F02980BCF153
:100E0000FF3F08BF40F080407047130C06BF12043C
:100E10004FF0100C4FF0000C130E04BF12020CF137
:100E2000080C130F04BF12010CF1040C930F04BF44
:100E300092000CF1020CD30F04BF52000CF1010C14
:100E400011464FF00002A0F11F00A0EB0C0070470C
:100E500011F0004F08BF704731F000413FF4D5AFAB
:100E60000B0C06BF09044FF0100C4FF0000C0B0EDA
:100E700004BF09020CF1080C0B0F04BF09010CF1AF
:100E8000040C8B0F04BF89000CF1020CCB0F04BFC4
:100E900049000CF1010CCCF12003A0EB0C0022FA6C
:100EA00003F302FA0CF241EA030100F1010070477A
:100EB00020F07F4C80EA030023F07F47ACEB070370
:100EC00003F57C5300F0004003F1FF032DE9804956
:100ED0004FEA154B09B44FEA144325EA0B4E24EAB6
:100EE00003480FF2042606EB132749083E785FEA11
:100EF000320203FB0667C7F5000707FB06F64FEA59
:100F000054374FEAD64606F1020607FB066CCCF1D1
:100F1000005C4FEA1C472CEA074C07FB06F40CFB6D
:100F200006F504EB15464FEA961634BF00204FF045
:100F300000404FEAD13706FB07FC4FEA1C4C0CFB84
:100F40000BF7D21B03FB0CF761EB07010CFB0EF751
:100F5000B0EB074072EB17420CFB08F734BFA2EB73
:100F60000742B2EB074261EB17414FEA0C444FEAEC
:100F7000910706FB07FC4FEA1C4C0CFB0BF7B0EB90
:100F8000C74072EB573203FB0CF734BFA2EBC742EA
:100F9000B2EBC74261EB57310CFB0EF7B0EBC70069
:100FA00072EB57720CFB08F734BFA2EBC702B2EB2F
:100FB000C70261EB5771039F4FEA816141EA9211C9
:100FC00004EBCC044FEAD1374FEA826206FB07FC00
:100FD00042EA90124FEA80604FEA1C4C0CFB0BF780
:100FE000D21B03FB0CF761EB07010CFB0EF7B0EB18
:100FF000074072EB17420CFB08F734BFA2EB074225
:10100000B2EB074261EB17414FEA8C554FEA91076B
:1010100004EB9C2406FB07FC4FEA1C4C0CFB0BF773
:10102000B0EBC74072EB573203FB0CF734BFA2EBB7
:10103000C742B2EBC74261EB57310CFB0EF7B0EB86
:10104000C70072EB57720CFB08F734BFA2EBC70264
:10105000B2EBC70261EB577115EB4C254FEA81618A
:1010600041EA92114FEA82624FEAD13742EA901286
:1010700006FB07FC44F100044FEA80604FEA1C4C79
:101080000CFB0BF7D21B03FB0CF761EB07010CFB0E
:101090000EF7B0EB074072EB17420CFB08F734BFBA
:1010A000A2EB0742B2EB074261EB174115EB1C15AF
:1010B0004FEA813141EA92414FEA823242EA90425C
:1010C0004FEA80304FEA0C7644F1000448EA0343CB
:1010D0004EEA0B484FF0000EB2EB080C71EB030721
:1010E00024BF624639464EEB0E0E4FF0000B00183F
:1010F000524149414BEB0B0BB2EB080C71EB030770
:101100007BF1000B24BF624639464EEB0E0E4FF0CA
:10111000000B0018524149414BEB0B0BB2EB080C92
:1011200071EB03077BF1000B24BF624639464EEB9F
:101130000E0E51EA020718BF46F0010616EB0E76B6
:1011400055F1000254F1000103D5BDE88901BDE865
:101150000088BDE88901BDE80048B619524141EB5D
:101160000101A3F10103704780807F7E7D7C7B7A43
:101170007978777676757473727171706F6E6E6D43
:101180006C6C6B6A6A6968686766666564646363E9
:1011900062616160605F5F5E5E5D5D5C5C5B5B5A6F
:1011A0005A595958585757565655555554545353DC
:1011B00052525251515050504F4F4F4E4E4D4D4D37
:1011C0004C4C4C4B4B4B4A4A4A4949494848484782
:1011D00047474746464645454544444444434343C0
:1011E0004342424242414141002B26D4770021D064
:1011F0001CB54FEA370703B44FF010004FF0100151
:101200004FF000000FBCBDE810400BF1010BBBF12B
:10121000010F08BF5FEA170722BF12F1010211F1A7
:1012200001014FF0004143F1000300F0004043EAA8
:1012300000007047F9D35708DAE746EA064613F18B
:10124000400F4FEA16461FDD13F1200FDFBF164394
:101250000A46002120335B42C8D0C3F1200746EA8A
:10126000064602FA07F74FEA164646EA0706C3F1B2
:10127000200722FA03F201FA07F721FA03F14FF0EF
:10128000000342EA0702B1E746EA020646EA0646DA
:101290004FEA164646EA0106BCBF46EA0646360C49
:1012A0004FF000034FF000024FF000019EE72DE9E0
:1012B000C048934630B491E8380007C831EA400C82
:1012C00048BF34EA430C03D5FFF7F2FDFFF78CFF6C
:1012D000F0BCBDE800882DE9C048934630B491E8E1
:1012E000380007C810F0804F08BF13F0804F03D1BB
:1012F00000F005F8FFF778FFF0BCBDE8008820F0AB
:101300007F4780EA030023F07F4C07EB0C03A3F533
:101310007C5300F00040A3F1FE0392F0000F00F0B8
:10132000B38095F0000F00F077802DE901494FEA76
:1013300011404FEA144621EA004800FB06FC24EA6B
:10134000064708FB06F607FB08F800FB07F718EB53
:1013500006484CEB164C4FEA124B18EB07484FEA85
:1013600015464CEB174022EA0B4E0BFB06FC25EA18
:1013700006470EFB06F607FB0EFE0BFB07F71EEB00
:10138000064E4CEB164C4FF000061EEB074E4CEB96
:10139000174B18EB0B0840F1000018EB0E0B58EB45
:1013A000000840F100008F1A4FF000013CBFC94314
:1013B000661B14BFB5EB040C00213CBFC943F61BF0
:1013C0004FEA17444EEA8E0E27EA04454FEA1C47BF
:1013D00004FB07622CEA074C05FB07F70CFB05F63C
:1013E00004FB0CFC16EB074642EB174216EB0C46CF
:1013F00042EB1C421BEB060658EB0202414146EA57
:101400009E0601D5BDE80189B619524141EB0101A3
:10141000A3F10103BDE801894FEA14454FEA1147E2
:1014200024EA054621EA074C05FB07F406FB07F70B
:101430000CFB06F105FB0CFC11EB074144EB1744D8
:101440004FEA124711EB0C4144EB1C4422EA074CD3
:1014500005FB07F206FB07F70CFB06F605FB0CFC89
:1014600016EB074642EB174216EB0C4642EB1C45C7
:101470006A1854F1000148BF7047B619524141EB58
:101480000101A3F10103704795F0000F37D04FEA37
:1014900011424FEA144721EA024624EA074C02FBB4
:1014A00007F106FB07F70CFB06F402FB0CFC14EB40
:1014B000074441EB17414FEA154714EB0C4441EB4D
:1014C0001C4125EA074C02FB07F506FB07F70CFB5E
:1014D00006F602FB0CFC16EB074645EB174516EB30
:1014E0000C4645EB1C42121951F1000148BF7047F0
:1014F000B619524141EB0101A3F1010370474FEAD4
:1015000014454FEA114724EA054621EA074C05FB3A
:1015100007F106FB07F70CFB06F24FF0000605FB90
:101520000CFC12EB074241EB174112EB0C4251EB62
:101530001C4148BF7047921841EB0101A3F1010320
:10154000704721B1826842F00102826003E0826844
:1015500022F001028260704710B5044612488442AE
:1015600008D10121401500F09FFB0021601500F01B
:101570009BFB17E00D48844208D10121001500F0C3
:1015800093FB0021201500F08FFB0BE008488442FC
:1015900008D10121C80300F087FB00214FF400406F
:1015A00000F082FB10BD0000002401400028014033
:1015B000003C0140014600208A6802F004020AB1A2
:1015C000012000E000207047014600208A6802F0F8
:1015D00008020AB1012000E00020704730B5024641
:1015E0000020002350680F4C20400D790C6844EA1D
:1015F00005242043506090680B4C2040D1E90254F0
:101600002C434D7944EA450420439060D06A20F48D
:1016100070000C7C641EE4B2234340EA0350D062A5
:1016200030BD0000FFFEF0FFFDF7F1FF816841F0E3
:10163000080181607047816841F004018160704752
:1016400000B587B001214FF4047000F01DFB0020AD
:1016500000F0FEFA0220ADF8040000208DF807002B
:1016600001A9184800F03EF81748FFF775FF002061
:1016700002908DF80C008DF80D004FF4602004905E
:101680000020059001208DF8180002A90E48FFF7F0
:10169000A5FF01210C48FFF754FF0B48FFF7C6FFD9
:1016A00000BF0948FFF790FF0028FAD10648FFF76E
:1016B000C2FF00BF0448FFF77DFF0028FAD107B042
:1016C00000BD0000001001400024014000BFFEE703
:1016D000704701B502E00098401E00900098002875
:1016E000F9D108BD2DE9F041024600250026002071
:1016F00000230024002791F803C00CF00F0591F897
:1017000003C00CF0100CBCF1000F03D091F802C024
:101710004CEA050591F800C0BCF1000F31D0146807
:1017200000202BE04FF0010C0CFA00F3B1F800C0E0
:101730000CEA03069E4220D183004FF00F0C0CFAF6
:1017400003F7BC4305FA03FC4CEA040491F803C018
:10175000BCF1280F06D14FF0010C0CFA00FCC2F8C6
:1017600014C00AE091F803C0BCF1480F05D14FF056
:10177000010C0CFA00FCC2F810C0401C0828D1D3A0
:101780001460B1F800C0BCF1FF0F34DD54680020D4
:101790002EE000F1080C4FF0010808FA0CF3B1F844
:1017A00000C00CEA03069E4221D183004FF00F0CCB
:1017B0000CFA03F7BC4305FA03FC4CEA040491F865
:1017C00003C0BCF1280F05D100F1080C08FA0CF891
:1017D000C2F8148091F803C0BCF1480F07D100F1A2
:1017E000080C4FF0010808FA0CF8C2F81080401CF1
:1017F0000828CED35460BDE8F08141617047016193
:10180000704700BFFEE7000008B50121102000F07E
:101810003BFA4FF40050ADF8000010208DF80300A3
:1018200003208DF8020069460448FFF75BFF4FF480
:1018300000510248FFF7E1FF08BD00000010014021
:1018400000BFFEE7704700001CB511A103C9CDE938
:101850000001102000F012FB05226946302000F044
:101860007DF905226946102000F0B4F8002406E056
:101870001DF80400A52800D003E0601CC4B2052CAC
:10188000F6DB00BF052C01D001201CBD0020FCE7C9
:10189000A5A5A5A5A500000000B587B001210820D9
:1018A00000F0F2F94FF48050ADF8180010208DF8D8
:1018B0001B0001208DF81A0006A92B48FFF712FF24
:1018C0004FF480512848FFF79AFF4FF4C070ADF8ED
:1018D000180010208DF81B0001208DF81A0006A9B1
:1018E0002148FFF7FFFE4020ADF8180048208DF892
:1018F0001B0006A91C48FFF7F5FE4FF4E0711B48DA
:10190000FFF77BFF00F04AFA0021194800F0CAFAFD
:101910000020ADF804004FF48270ADF806000020FE
:10192000ADF80800ADF80A00ADF80C004FF40070F7
:10193000ADF80E001020ADF810000020ADF8120038
:101940000720ADF8140001A9094800F0C5FA0121EB
:10195000074800F0A7FA0020064908600120064960
:10196000C1F89C0107B000BD000C014000200140FF
:1019700000380040A08121420080214210B50020A3
:1019800011490860052211492A2000F0E7F80121D9
:10199000212000F001F90121222000F0FDF828218A
:1019A000252000F0F9F82021312000F0F5F80F2172
:1019B000262000F0F1F80F21202000F0EDF80120A2
:1019C0000349C1F8A00110BDA0812142452E0008A5
:1019D000008021422DE9F04107460D4616460020C1
:1019E0000A490860384600F01FFA8046002405E0E6
:1019F000FF2000F019FA2855601CC4B2B442F7DB8E
:101A00000120024908604046BDE8F0819C812142E6
:101A100070B50446002007490860204600F004FA2B
:101A2000FF2000F001FA054601200349C1F89C019E
:101A3000284670BD9C8121420080214270B5044639
:101A4000102000F01BFA0720FFF7E2FF05462946A9
:101A5000272000F0A1F805F0400050B120222146D7
:101A60006120FFF7B7FFFF21E22000F095F800208A
:101A700070BD0120FCE7000010B500201649086089
:101A800005221649302000F069F8052214492A2061
:101A900000F064F80121212000F07EF801212220CD
:101AA00000F07AF81E21242000F076F82821252065
:101AB00000F072F80F21262000F06EF80E21202091
:101AC00000F06AF801200749C1F8A0014FF6FF7045
:101AD000FFF7FFFD10BD0000A0812142402E00084D
:101AE000452E00080080214270B50546102000F008
:101AF000C5F900201649086020222946A02000F0E0
:101B00002DF801201349C1F8A00100BF1048883802
:101B100000680028FAD10720FFF77AFF0446214623
:101B20000DA0FEF7A3FB2146272000F035F8FF218A
:101B3000E12000F031F804F0200008B1202070BD51
:101B400004F0100008B10120F9E7F220F7E70000E7
:101B5000A081214200802142257820002DE9F0411A
:101B600007460C46154600200A490860384600F032
:101B70005BF98046002605E014F8010B00F054F9EB
:101B8000701CC6B2AE42F7DB012002490860404635
:101B9000BDE8F0819C81214270B505460C460020CD
:101BA00007490860284600F03FF90646204600F045
:101BB0003BF901200349C1F89C01304670BD00008B
:101BC0009C8121420080214270B5002100230F2218
:101BD000C47804B3154C246804F4E064C4F5E064EC
:101BE000210AC1F10403CA40447804FA03F184785D
:101BF0001440214309010E4C0678A155047804F0E5
:101C00001F050124AC4005786D11AD0005F1E025FC
:101C1000C5F8004109E0047804F01F050124AC4038
:101C2000044D0678761145F8264070BD0CED00E0B5
:101C300000E400E080E100E002490143024A116053
:101C4000704700000000FA050CED00E0704700004E
:101C500001460020034A506820F440400843506089
:101C6000704700000010024029B1064AD2690243C1
:101C7000044BDA6104E0034AD2698243014BDA6122
:101C8000704700000010024029B1064A92690243E1
:101C9000044B9A6104E0034A92698243014B9A61C2
:101CA000704700000010024029B1064AD268024382
:101CB000044BDA6004E0034AD2688243014BDA60E5
:101CC000704700000010024030B5002100220024BF
:101CD00000232D4D6D6805F00C0121B1042905D0BC
:101CE000082923D105E0294D056022E0274D056034
:101CF0001FE0254D6D6805F47012234D6D6805F4E5
:101D00008034022505EB92421CB9214D55430560F4
:101D10000BE01D4D6D6805F400351DB11C4D55439C
:101D2000056002E0194D5543056002E0174D05605E
:101D300000BF00BF144D6D6805F0F0010909154D95
:101D40006B5C0568DD4045600F4D6D6805F4E06132
:101D5000090A104D6B5C4568DD4085600A4D6D6871
:101D600005F46051C90A0B4D6B5C4568DD40C560E8
:101D7000054D6D6805F44041890B074D6B5CC568E6
:101D8000B5FBF3F5056130BD0010024000127A008A
:101D900000093D00220000203200002000B587B07D
:101DA00001210820FFF770FF01218803FFF75CFF86
:101DB0004FF46040ADF8180018208DF81B0001208A
:101DC0008DF81A0006A91648FFF78CFC0020ADF824
:101DD00004004FF48270ADF806000020ADF8080052
:101DE0000220ADF80A000120ADF80C004002ADF869
:101DF0000E003820ADF810000020ADF812000720CA
:101E0000ADF8140001A9074800F066F80121054863
:101E100000F048F8FF2000F007F807B000BD000010
:101E2000000C01400038004070B50546002405E074
:101E3000601CC4B2C82C01DD002070BD02210E4818
:101E400000F03CF80028F3D029460B4800F042F897
:101E5000002405E0601CC4B2C82C01DD0020ECE7C2
:101E60000121054800F02AF80028F3D0024800F0CC
:101E70002EF8C0B2E1E700000038004010B504467B
:101E8000074800884FF6C771084005490880084692
:101E90000088204308800121014800F003F810BDAC
:101EA0000038004021B1028842F04002028004E084
:101EB00002884FF6BF731A40028070470246002026
:101EC00013890B400BB1012000E000207047014650
:101ED000888970478181704710B50022028802F41A
:101EE00041520B884C8823438C882343CC8823435E
:101EF0000C8923434C8923438C892343CC89234376
:101F00001A430280838B4FF2FF74234083830B8A32
:101F1000038210BD704710B500F002F810BD00003C
:101F20000CB50020019000903348006840F48030E8
:101F30003149086000BF3048006800F4003000906C
:101F40000198401C0190009818B90198B0F5A06F55
:101F5000F1D12948006800F4003010B10120009050
:101F600001E0002000900098012843D12348006838
:101F700040F01000214908600846006820F0030086
:101F800008600846006840F0020008601A4840688F
:101F9000194948600846406848600846406840F46F
:101FA000806048600846406820F47C10486008461D
:101FB000406840F4E81048600846006840F08070CF
:101FC000086000BF0C48006800F000700028F9D0DD
:101FD0000948406820F00300074948600846406807
:101FE00040F00200486000BF0348406800F00C0069
:101FF0000828F9D10CBD000000100240002002406A
:10200000042808D14FF0E021096941F004014FF0A4
:10201000E022116107E04FF0E021096921F004019D
:102020004FF0E022116170477047000010B513486F
:10203000006840F0010011490860084640681049F6
:1020400008400E494860084600680E4908400B49A0
:1020500008600846006820F4802008600846406850
:1020600020F4FE0048604FF41F008860FFF753FF24
:102070004FF000600449086010BD000000100240ED
:102080000000FFF8FFFFF6FE08ED00E010B50121AB
:10209000064800F04EF840B10121044800F03AF83B
:1020A00003480068401C0249086010BD000400405D
:1020B000140000207FB505460C4601210220FFF7E1
:1020C000D3FDADF80850ADF804400020ADF80A008B
:1020D000ADF8060001A90E4800F046F801221146AD
:1020E0000B4800F037F81D208DF8000000208DF817
:1020F000010003208DF8020001208DF803006846DE
:10210000FFF762FD0121024800F007F87FBD0000E3
:1021100000040040CA430282704721B1028842F0A5
:102120000102028004E002884FF6FE731A4002802A
:10213000704730B50246002000230024158A05EAC6
:102140000103958905EA010413B10CB1012000E0F7
:10215000002030BD1AB183890B43838102E083895B
:102160008B43838170470000002202881D4B9842F8
:102170000ED01D4B98420BD0B0F1804F08D01B4BB6
:10218000984205D01A4B984202D01A4B984204D17B
:102190004FF68F731A404B881A43174B984207D05B
:1021A000164B984204D04FF6FF431A40CB881A438F
:1021B00002808B8883850B8803850A4B98420BD05D
:1021C000094B984208D00E4B984205D00D4B9842CF
:1021D00002D00D4B984201D10B7A038601238382F2
:1021E00070470000002C0140003401400004004012
:1021F00000080040000C00400010004000140040A7
:1022000000400140004401400048014010B540F248
:1022100025511D4800F04AF810B31B4800F002F9A0
:10222000C4B21A48008800F40040C8B917480088B2
:1022300000F4804060B10A2C03D0002013490880CC
:1022400020E01248008840F400401049088019E05E
:102250000D2C06D10D48008840F480400B490880C1
:1022600010E00A480088C0F30D0009490C540748E3
:102270000088401C0549088008460088C72801DD01
:102280000020088010BD0000003801402000002020
:102290003800002021B1828942F40052828104E09A
:1022A00082894DF6FF731A408281704770B50246ED
:1022B000002400230025002040F66A16B14200D118
:1022C00000BFC1F3421501F01F03012606FA03F314
:1022D000012D02D19689334006E0022D02D1168AE3
:1022E000334001E0968A33400C12012606FA04F4CA
:1022F0001688344013B10CB1012000E0002070BDFD
:10230000F0B50346002400260025002040F66A1799
:10231000B94200D100BF1846C1F3421401F01F06B4
:10232000012707FA06F5012C01D10C3004E0022C3C
:1023300001D1103000E014301AB107682F43076054
:1023400002E00768AF430760F0BD00002DE9F047E9
:1023500086B005460E460024A24600BFA1460027CF
:10236000B08900B100BF2F462C8A4CF6FF700440A4
:10237000F08804432C82AC894EF6F3100440B088F8
:1023800031890843718908430443AC81AC8A4FF614
:10239000FF400440B0890443AC8201A8FFF794FCDD
:1023A0001F48874202D1DDF810A001E0DDF80CA043
:1023B000A88900F4004040B10AEBCA0000EB0A1003
:1023C00031684900B0FBF1F807E00AEBCA0000EB06
:1023D0000A1031688900B0FBF1F86420B8FBF0F016
:1023E00004012009642101FB1089A88900F4004040
:1023F00040B1322000EBC900B0FBF1F000F0070063
:10240000044308E0322000EB09106421B0FBF1F036
:1024100000F00F0004432C8106B0BDE8F0870000F7
:102420000038014001468888C0F30800704700BFAB
:10243000FEE7490050EAC12018BF04204A0D18BF2A
:1024400040F0010040F2FF72B2EB515F08BF40F074
:102450000200012808BF0520704730380A2801D241
:102460000120704700207047014600BF7047000000
:1024700010B56FF00400FFF7C3FD0A4800680A4971
:10248000B0FBF1F0094908700846007800EB400104
:10249000C1EBC0104FF6FF7101EAC000044908808B
:1024A00010BD00000000002000127A00180000207B
:1024B0001A0000200146114A12884A434FF0E023D7
:1024C0005A6100229A611A46126942F001021A61A9
:1024D00000BF4FF0E022106900F001021AB100F4D1
:1024E0008032002AF5D04FF0E022126922F001027A
:1024F0004FF0E0231A6100229A6170471A00002011
:102500000146114A12784A434FF0E0235A610022F3
:102510009A611A46126942F001021A6100BF4FF037
:10252000E022106900F001021AB100F48032002AA2
:10253000F5D04FF0E022126922F001024FF0E023C3
:102540001A6100229A6170471800002000BF054AF6
:10255000128802F04002002AF9D0C2B2014B1B1DC2
:102560001A80704700380140B6B04FF000090020D3
:10257000359082468346349033900024442122A82B
:10258000FDF7FCFF202292491AA8FDF7C5FF642140
:1025900001A8FDF7F3FFFFF76BFF4FF4A060FFF713
:1025A0004BFB4FF4E13000F0A1F9FFF72DF9FFF7F5
:1025B00073F9012636B1FFF743F841F61F410220B7
:1025C000FFF778FD08E083A0FDF750FEC820FFF775
:1025D00071FFC820FFF76EFFFFF736F90028F2D130
:1025E00080A0FDF743FE4FF4FA60FFF763FFEEE0D3
:1025F000002E6FD1FFF7C2F97DA0FDF737FE67E02F
:1026000001A8FFF71BFA054600203590002D5FD189
:102610007CA0FDF72BFE7F48006808B9012000E090
:1026200000207C4908606420FFF76AFF002405E071
:1026300001A8015D78A0FDF719FE641C202CF7DBD2
:10264000002406E001A8005D9DF8D41048403590B4
:10265000641C1F2CF6DB9DF8D41071A0FDF706FE5C
:102660009DF823009DF8D410884209D16FA0FDF792
:10267000FDFD4FF07E51504600F0D0F9824608E053
:102680006FA0FDF7F3FD4FF07E51584600F0C6F9FC
:1026900083465146584600F0C1F907463946584628
:1026A00000F01EFA34905146584600F0B7F907463C
:1026B00000F0D8FA339067A03399FDF7D7FD34982E
:1026C00000F080F907463A460B4667A0FDF7CEFDBD
:1026D00096E7FFE7FFF7D0F969A0FDF7C7FD75E0C2
:1026E000002419E06B480068FDF7F8FEFDF782FD55
:1026F000642190FBF1F201FB120000F0FF09494652
:1027000045A0FDF7B3FD1AA800F80490005D9DF800
:10271000D41048403590641C1F2CE3DB9DF8D40096
:102720008DF887005CA0FDF7A1FD1AA8FFF7DCF982
:10273000054629465BA0FDF799FD202D1DD15BA024
:10274000FDF794FD5D48006808B9012000E0002015
:102750005A4908604FF07E51504600F05FF98246BA
:102760006420FFF7A7FE349800F02CF907463A469C
:102770000B4653A0FDF77AFD1CE058A0FDF776FD4F
:10278000349800F01FF907463A460B464CA0FDF777
:102790006DFD2048006808B9012000E000201D49B7
:1027A00008604FF07E51584600F038F983466420A7
:1027B000FFF780FE5146584600F030F9074639468B
:1027C000584600F08DF934900020359088E70FE7E7
:1027D000202E00084E524632344C30312045727261
:1027E0006F7200004E524632344C3031204F4B0055
:1027F0004E524632344C30312052585F4D6F646532
:10280000200D0A0052656365697665642044415471
:10281000413A0000B401224220256420000000005B
:102820004352433A2564200D0A0000007265762069
:10283000646174612073756363657373200D0A00AE
:102840007265762064617461206661696C200D0A8E
:102850000000000053656E6420746F74616C3A254B
:1028600064200D0A0000000053656E6420666169F3
:102870006C20636F6E756E74203A2025660D0A0019
:102880004E524632344C30312054585F4D6F64659F
:10289000200D0A0014000020B7A2CBCDC4A3CABDEE
:1028A0000A000000253032782000000053656E6475
:1028B000656420444154413A0D0A000094012342CA
:1028C00053656E64206661696C20636F6E756E740B
:1028D000203A20256620200D0A00000053656E6412
:1028E000204661696C6564200D0A200010B586B031
:1028F0000446012144F20400FFF7C6F94FF40070CA
:10290000ADF8140003208DF8160018208DF817007C
:1029100005A91C48FEF7E6FE4FF48060ADF81400F0
:1029200004208DF8170005A91648FEF7DBFE2520C8
:102930008DF8000003208DF801008DF802000120C1
:102940008DF803006846FFF73FF901940020ADF8C9
:102950000800ADF80A00ADF80C00ADF810000C202E
:10296000ADF80E0001A90848FFF7F0FC012240F283
:1029700025510548FFF7C4FC01210348FFF78AFCF5
:1029800006B010BD000801400038014010B5002914
:102990000AD00878002807D005487844FEF7D6F911
:1029A000002801D0002010BD0248784410BD00006E
:1029B0009E050000960500000808A0F500114FEAEA
:1029C0003101704743004FEAD30C4FEA3C0C4340BF
:1029D0001FBF40070CF1605113F0FE4F70471CF011
:1029E000006F03D100200CF0004170470CF0004351
:1029F00043EA507010B540EACC0000F04EF900BF39
:102A0000000000924FEA0001FFF7D6BF4FF00041EF
:102A10004FF00000A1F500217047000090EA010F7F
:102A200048BF81F0004100F18A81421A3CBF801A00
:102A300089184FEAD0524FF07F4C1CEA410FA2EBAD
:102A4000D15318BF9CEA026F00F03B804FF0004C5E
:102A50004CEA00204CEA012121FA03FC10EB0C0C9B
:102A60001ED202F1FF325FEA1C2040EBC25038BF99
:102A700070471CF07F0F4FEA400C18BFBCF17F4F2E
:102A800038BF7047C3F12003994008BF20F0010010
:102A9000BCF17F4F38BF7047A0F1C04000F043B990
:102AA0004FEA3C00000A40EBC25028BF1CF0FF0F69
:102AB0004FEA400CE6D018BFBCF17F4F38BF7047DB
:102AC000EAE79CEA026F05D010EA5C0F08BF00F04D
:102AD0000040704710B500F0E0F800BF64FBBE3E58
:102AE0004FF47F0C1CEAD0121EBF1CEAD11392EAED
:102AF0000C0F93EA0C0F00F0858090EA010F48BF9D
:102B000042F4807240F4000C41F400002CF07F414C
:102B100020F07F4000B58142A2EB03020FF2081CB7
:102B2000ACEB504EC0F100009EF800E04FEA4E0EB4
:102B300000FB0EFC38BF49004FEA2C1C02F5FA02DC
:102B40000CFB0EF34FEACE1E4FEA112C4FEAC121C7
:102B50000EEB635E42EB22420EFB0CFC4FEA1C5371
:102B600000FB03114FEA112C4FEA01310EFB0CFC64
:102B70004FEADC4C00FB0C11C14228BF09184CEB9A
:102B800003335DF804EB10EB410143EBC250B2F5A7
:102B90007C0F38BF704729D512F0F00F1CBF00F131
:102BA000C04000F0004070470081828384858687A2
:102BB00088898B8C8D8E8F919293959697999A9CFC
:102BC0009D9FA0A2A3A5A7A8AAACAEB0B2B3B5B76B
:102BD000B9BCBEC0C2C5C7C9CCCED1D4D7D9DCDF41
:102BE000E2E6E9ECF0F3F7FAFE0000004FEA400CF1
:102BF0000CF1807CBCF17E4F28BF7047B0F1C04023
:102C000000F091B890EA010F0CEAD11348BF42F4EA
:102C10008072624538BF634507D213F47F0F16D028
:102C200080EA010000F00040704710B500F035F870
:102C3000097EFC3E00F005B880EA010000F000408B
:102C4000704780EA010000F0004000F06CB812F418
:102C50007F0F04BF0248704780EA010000F063B8AC
:102C60000000C07F41000B0ED3F19E0208D950F442
:102C700000034FEA032323FA02F048BF40427047A3
:102C800010B500F00AF800BF499224800020704778
:102C90006FF0004282EA200070470EF1020E2EF023
:102CA000030E5EF8044B244204D44FEA4102B2F111
:102CB0007F4F11D84FEA4003B3F17F4F0CD80ED1AC
:102CC0004FEAD07CB2F17F4F0CEB4C0C0CF1020CB4
:102CD00008BF4CEBD17C04E04FF0080C01E04FEA58
:102CE000D17C0CEB4C0324FA03F404F00704B4F198
:102CF000040C06D20EEB840CBDE810404CF0010C25
:102D00006047DFE80CF0070802024FF00040A0F532
:102D1000800010BD0846420018BFD2F1807288BF03
:102D200000F0004010BDFF2141EAD050C0057047BF
:102D300090EA010F48BF81F000413FF576AE421A9C
:102D400004D882F00042A0EB020011444FEAD052B6
:102D50004FF07F4C1CEA410FA2EBD15318BF9CEA05
:102D6000026F4AD04FF0004C4CEA00204CEA01219F
:102D700021FA03FCB0EB0C0C0FD412F0FE0F36D08E
:102D80005FEA4C001DD5001240EBC25038BF7047BF
:102D90001CF03F0F18BF70470BE0A2F101025FEA81
:102DA0001C2040EBC25038BF70471CF07F0F18BF8B
:102DB0007047C3F12003994014BF401E20F001006A
:102DC000704780084FEA122308BF7047B0FA80FCB2
:102DD000A2EB0C02CCF1280C60FA0CF093EA122F53
:102DE00004BF00EBC25070474FEAC3707047130A2C
:102DF0005FEADC1008BF7047F6E79CEA026F04D078
:102E000010EA5C0F08BF0020704710B5FFF745FFC0
:102E100040DFF63E81F000407047FDF70ABD00003C
:102E2000000102030405060708090A0B0C0D0E0F2A
:102E3000101112131415161718191A1B1C1D1E0039
:102E40003443101001344310100130313233343523
:102E500036373839414243444546403058003031D6
:102E600032333435363738396162636465664030F1
:102E700078000400000800000000000000020001CB
:102E80000000100002400000000000A00000000050
:102E900005400000000000C8000000000C400000D9
:102EA0000000409C00000000194000000020BCBE53
:102EB0000000000034400000BFC91B8E0000000469
:102EC000B5400000504BCFD06607E2CF01000000B4
:102ED0006C4100003E8251AADFEEA73401000000E1
:102EE000D9420000DCB5A0E23A301F97FFFFFFFF98
:102EF000B4450000FD25A0C8E9A3C14FFFFFFFFFB7
:102F0000FF3F00000000008000000000FF3F0000C5
:102F10000000008000000000542F00080000002086
:102F2000380000006C0100088C2F000838000020D9
:102F300010080000880100081C0000004300000089
:102F4000F8FFFFFF0C0000000E0000000F00000063
:102F50002E00000000A24A04000000000000000053
:102F60000102030406070809000000000000000039
:102F70000000000000000000000001020304010244
:0C2F80000304060708090204060800000C
:0400000508000131BD
:00000001FF
